{
  "_format": "hh-sol-artifact-1",
  "contractName": "MyEpicNFT",
  "sourceName": "contracts/MyEpicNFT.sol",
  "abi": [
    {
      "inputs": [],
      "stateMutability": "nonpayable",
      "type": "constructor"
    },
    {
      "anonymous": false,
      "inputs": [
        {
          "indexed": true,
          "internalType": "address",
          "name": "owner",
          "type": "address"
        },
        {
          "indexed": true,
          "internalType": "address",
          "name": "approved",
          "type": "address"
        },
        {
          "indexed": true,
          "internalType": "uint256",
          "name": "tokenId",
          "type": "uint256"
        }
      ],
      "name": "Approval",
      "type": "event"
    },
    {
      "anonymous": false,
      "inputs": [
        {
          "indexed": true,
          "internalType": "address",
          "name": "owner",
          "type": "address"
        },
        {
          "indexed": true,
          "internalType": "address",
          "name": "operator",
          "type": "address"
        },
        {
          "indexed": false,
          "internalType": "bool",
          "name": "approved",
          "type": "bool"
        }
      ],
      "name": "ApprovalForAll",
      "type": "event"
    },
    {
      "anonymous": false,
      "inputs": [
        {
          "indexed": false,
          "internalType": "address",
          "name": "sender",
          "type": "address"
        },
        {
          "indexed": false,
          "internalType": "uint256",
          "name": "tokenId",
          "type": "uint256"
        }
      ],
      "name": "NewEpicNFTMinted",
      "type": "event"
    },
    {
      "anonymous": false,
      "inputs": [
        {
          "indexed": true,
          "internalType": "address",
          "name": "from",
          "type": "address"
        },
        {
          "indexed": true,
          "internalType": "address",
          "name": "to",
          "type": "address"
        },
        {
          "indexed": true,
          "internalType": "uint256",
          "name": "tokenId",
          "type": "uint256"
        }
      ],
      "name": "Transfer",
      "type": "event"
    },
    {
      "inputs": [
        {
          "internalType": "address",
          "name": "to",
          "type": "address"
        },
        {
          "internalType": "uint256",
          "name": "tokenId",
          "type": "uint256"
        }
      ],
      "name": "approve",
      "outputs": [],
      "stateMutability": "nonpayable",
      "type": "function"
    },
    {
      "inputs": [
        {
          "internalType": "address",
          "name": "owner",
          "type": "address"
        }
      ],
      "name": "balanceOf",
      "outputs": [
        {
          "internalType": "uint256",
          "name": "",
          "type": "uint256"
        }
      ],
      "stateMutability": "view",
      "type": "function"
    },
    {
      "inputs": [
        {
          "internalType": "uint256",
          "name": "tokenId",
          "type": "uint256"
        }
      ],
      "name": "getApproved",
      "outputs": [
        {
          "internalType": "address",
          "name": "",
          "type": "address"
        }
      ],
      "stateMutability": "view",
      "type": "function"
    },
    {
      "inputs": [],
      "name": "getCurrentTokenId",
      "outputs": [
        {
          "internalType": "string",
          "name": "",
          "type": "string"
        }
      ],
      "stateMutability": "view",
      "type": "function"
    },
    {
      "inputs": [
        {
          "internalType": "address",
          "name": "owner",
          "type": "address"
        },
        {
          "internalType": "address",
          "name": "operator",
          "type": "address"
        }
      ],
      "name": "isApprovedForAll",
      "outputs": [
        {
          "internalType": "bool",
          "name": "",
          "type": "bool"
        }
      ],
      "stateMutability": "view",
      "type": "function"
    },
    {
      "inputs": [],
      "name": "makeAnEpicNFT",
      "outputs": [],
      "stateMutability": "payable",
      "type": "function"
    },
    {
      "inputs": [],
      "name": "name",
      "outputs": [
        {
          "internalType": "string",
          "name": "",
          "type": "string"
        }
      ],
      "stateMutability": "view",
      "type": "function"
    },
    {
      "inputs": [
        {
          "internalType": "uint256",
          "name": "tokenId",
          "type": "uint256"
        }
      ],
      "name": "ownerOf",
      "outputs": [
        {
          "internalType": "address",
          "name": "",
          "type": "address"
        }
      ],
      "stateMutability": "view",
      "type": "function"
    },
    {
      "inputs": [
        {
          "internalType": "uint256",
          "name": "tokenID",
          "type": "uint256"
        }
      ],
      "name": "pickRandomFirstWord",
      "outputs": [
        {
          "internalType": "string",
          "name": "",
          "type": "string"
        }
      ],
      "stateMutability": "view",
      "type": "function"
    },
    {
      "inputs": [
        {
          "internalType": "uint256",
          "name": "tokenID",
          "type": "uint256"
        }
      ],
      "name": "pickRandomSecondWord",
      "outputs": [
        {
          "internalType": "string",
          "name": "",
          "type": "string"
        }
      ],
      "stateMutability": "view",
      "type": "function"
    },
    {
      "inputs": [
        {
          "internalType": "uint256",
          "name": "tokenID",
          "type": "uint256"
        }
      ],
      "name": "pickRandomThirdWord",
      "outputs": [
        {
          "internalType": "string",
          "name": "",
          "type": "string"
        }
      ],
      "stateMutability": "view",
      "type": "function"
    },
    {
      "inputs": [
        {
          "internalType": "address",
          "name": "from",
          "type": "address"
        },
        {
          "internalType": "address",
          "name": "to",
          "type": "address"
        },
        {
          "internalType": "uint256",
          "name": "tokenId",
          "type": "uint256"
        }
      ],
      "name": "safeTransferFrom",
      "outputs": [],
      "stateMutability": "nonpayable",
      "type": "function"
    },
    {
      "inputs": [
        {
          "internalType": "address",
          "name": "from",
          "type": "address"
        },
        {
          "internalType": "address",
          "name": "to",
          "type": "address"
        },
        {
          "internalType": "uint256",
          "name": "tokenId",
          "type": "uint256"
        },
        {
          "internalType": "bytes",
          "name": "_data",
          "type": "bytes"
        }
      ],
      "name": "safeTransferFrom",
      "outputs": [],
      "stateMutability": "nonpayable",
      "type": "function"
    },
    {
      "inputs": [
        {
          "internalType": "address",
          "name": "operator",
          "type": "address"
        },
        {
          "internalType": "bool",
          "name": "approved",
          "type": "bool"
        }
      ],
      "name": "setApprovalForAll",
      "outputs": [],
      "stateMutability": "nonpayable",
      "type": "function"
    },
    {
      "inputs": [
        {
          "internalType": "bytes4",
          "name": "interfaceId",
          "type": "bytes4"
        }
      ],
      "name": "supportsInterface",
      "outputs": [
        {
          "internalType": "bool",
          "name": "",
          "type": "bool"
        }
      ],
      "stateMutability": "view",
      "type": "function"
    },
    {
      "inputs": [],
      "name": "symbol",
      "outputs": [
        {
          "internalType": "string",
          "name": "",
          "type": "string"
        }
      ],
      "stateMutability": "view",
      "type": "function"
    },
    {
      "inputs": [
        {
          "internalType": "uint256",
          "name": "tokenId",
          "type": "uint256"
        }
      ],
      "name": "tokenURI",
      "outputs": [
        {
          "internalType": "string",
          "name": "",
          "type": "string"
        }
      ],
      "stateMutability": "view",
      "type": "function"
    },
    {
      "inputs": [
        {
          "internalType": "address",
          "name": "from",
          "type": "address"
        },
        {
          "internalType": "address",
          "name": "to",
          "type": "address"
        },
        {
          "internalType": "uint256",
          "name": "tokenId",
          "type": "uint256"
        }
      ],
      "name": "transferFrom",
      "outputs": [],
      "stateMutability": "nonpayable",
      "type": "function"
    }
  ],
  "bytecode": "0x608060405266038d7ea4c6800060075560405180610160016040528061012f81526020016200472a61012f9139600990805190602001906200004392919062000689565b506040518060c001604052806040518060400160405280600881526020017f656c656374696f6e00000000000000000000000000000000000000000000000081525081526020016040518060400160405280600781526020017f636f6e6e6563740000000000000000000000000000000000000000000000000081525081526020016040518060400160405280600981526020017f53696e6761706f7265000000000000000000000000000000000000000000000081525081526020016040518060400160405280600681526020017f74726176656c000000000000000000000000000000000000000000000000000081525081526020016040518060400160405280600581526020017f756e74696c00000000000000000000000000000000000000000000000000000081525081526020016040518060400160405280600881526020017f736f6d65626f6479000000000000000000000000000000000000000000000000815250815250600a906006620001c19291906200071a565b506040518060c001604052806040518060400160405280600481526020017f6c6f636b0000000000000000000000000000000000000000000000000000000081525081526020016040518060400160405280600281526020017f646f00000000000000000000000000000000000000000000000000000000000081525081526020016040518060400160405280600381526020017f627579000000000000000000000000000000000000000000000000000000000081525081526020016040518060400160405280600881526020017f686573697461746500000000000000000000000000000000000000000000000081525081526020016040518060400160405280600781526020017f70726f766964650000000000000000000000000000000000000000000000000081525081526020016040518060400160405280600681526020017f6163636573730000000000000000000000000000000000000000000000000000815250815250600b9060066200033f9291906200071a565b506040518060c001604052806040518060400160405280600781526020017f70726f766964650000000000000000000000000000000000000000000000000081525081526020016040518060400160405280600781526020017f706f70756c61720000000000000000000000000000000000000000000000000081525081526020016040518060400160405280600a81526020017f6578706572696d656e740000000000000000000000000000000000000000000081525081526020016040518060400160405280600581526020017f617761726500000000000000000000000000000000000000000000000000000081525081526020016040518060400160405280600881526020017f7175657374696f6e00000000000000000000000000000000000000000000000081525081526020016040518060400160405280600381526020017f7075740000000000000000000000000000000000000000000000000000000000815250815250600c906006620004bd9291906200071a565b50348015620004cb57600080fd5b506040518060400160405280600981526020017f5371756172654e465400000000000000000000000000000000000000000000008152506040518060400160405280600681526020017f535155415245000000000000000000000000000000000000000000000000000081525081600090805190602001906200055092919062000689565b5080600190805190602001906200056992919062000689565b505050620005b76040518060400160405280601881526020017f54686973206973206d79204e465420636f6e74726163742e0000000000000000815250620005bd60201b620013631760201c565b6200093b565b6200065d81604051602401620005d491906200084f565b6040516020818303038152906040527f41304fac000000000000000000000000000000000000000000000000000000007bffffffffffffffffffffffffffffffffffffffffffffffffffffffff19166020820180517bffffffffffffffffffffffffffffffffffffffffffffffffffffffff83818316178352505050506200066060201b60201c565b50565b60008151905060006a636f6e736f6c652e6c6f679050602083016000808483855afa5050505050565b8280546200069790620008c5565b90600052602060002090601f016020900481019282620006bb576000855562000707565b82601f10620006d657805160ff191683800117855562000707565b8280016001018555821562000707579182015b8281111562000706578251825591602001919060010190620006e9565b5b50905062000716919062000781565b5090565b8280548282559060005260206000209081019282156200076e579160200282015b828111156200076d5782518290805190602001906200075c92919062000689565b50916020019190600101906200073b565b5b5090506200077d9190620007a0565b5090565b5b808211156200079c57600081600090555060010162000782565b5090565b5b80821115620007c45760008181620007ba9190620007c8565b50600101620007a1565b5090565b508054620007d690620008c5565b6000825580601f10620007ea57506200080b565b601f0160209004906000526020600020908101906200080a919062000781565b5b50565b60006200081b8262000873565b6200082781856200087e565b9350620008398185602086016200088f565b62000844816200092a565b840191505092915050565b600060208201905081810360008301526200086b81846200080e565b905092915050565b600081519050919050565b600082825260208201905092915050565b60005b83811015620008af57808201518184015260208101905062000892565b83811115620008bf576000848401525b50505050565b60006002820490506001821680620008de57607f821691505b60208210811415620008f557620008f4620008fb565b5b50919050565b7f4e487b7100000000000000000000000000000000000000000000000000000000600052602260045260246000fd5b6000601f19601f8301169050919050565b613ddf806200094b6000396000f3fe6080604052600436106101095760003560e01c806370a0823111610095578063b88d4fde11610064578063b88d4fde146103a1578063c575757a146103ca578063c87b56dd14610407578063de9d132f14610444578063e985e9c51461044e57610109565b806370a08231146102d357806395d89b4114610310578063a22cb4651461033b578063b187301f1461036457610109565b806323b872dd116100dc57806323b872dd146101dc5780632de38d681461020557806342842e0e14610242578063561892361461026b5780636352211e1461029657610109565b806301ffc9a71461010e57806306fdde031461014b578063081812fc14610176578063095ea7b3146101b3575b600080fd5b34801561011a57600080fd5b506101356004803603810190610130919061282b565b61048b565b6040516101429190612f58565b60405180910390f35b34801561015757600080fd5b5061016061056d565b60405161016d9190612f73565b60405180910390f35b34801561018257600080fd5b5061019d6004803603810190610198919061287d565b6105ff565b6040516101aa9190612ec8565b60405180910390f35b3480156101bf57600080fd5b506101da60048036038101906101d591906127ef565b610684565b005b3480156101e857600080fd5b5061020360048036038101906101fe91906126e9565b61079c565b005b34801561021157600080fd5b5061022c6004803603810190610227919061287d565b6107fc565b6040516102399190612f73565b60405180910390f35b34801561024e57600080fd5b50610269600480360381019061026491906126e9565b610998565b005b34801561027757600080fd5b506102806109b8565b60405161028d9190612f73565b60405180910390f35b3480156102a257600080fd5b506102bd60048036038101906102b8919061287d565b6109d1565b6040516102ca9190612ec8565b60405180910390f35b3480156102df57600080fd5b506102fa60048036038101906102f59190612684565b610a83565b6040516103079190613223565b60405180910390f35b34801561031c57600080fd5b50610325610b3b565b6040516103329190612f73565b60405180910390f35b34801561034757600080fd5b50610362600480360381019061035d91906127b3565b610bcd565b005b34801561037057600080fd5b5061038b6004803603810190610386919061287d565b610be3565b6040516103989190612f73565b60405180910390f35b3480156103ad57600080fd5b506103c860048036038101906103c39190612738565b610d01565b005b3480156103d657600080fd5b506103f160048036038101906103ec919061287d565b610d63565b6040516103fe9190612f73565b60405180910390f35b34801561041357600080fd5b5061042e6004803603810190610429919061287d565b610e81565b60405161043b9190612f73565b60405180910390f35b61044c610fd3565b005b34801561045a57600080fd5b50610475600480360381019061047091906126ad565b6112cf565b6040516104829190612f58565b60405180910390f35b60007f80ac58cd000000000000000000000000000000000000000000000000000000007bffffffffffffffffffffffffffffffffffffffffffffffffffffffff1916827bffffffffffffffffffffffffffffffffffffffffffffffffffffffff1916148061055657507f5b5e139f000000000000000000000000000000000000000000000000000000007bffffffffffffffffffffffffffffffffffffffffffffffffffffffff1916827bffffffffffffffffffffffffffffffffffffffffffffffffffffffff1916145b806105665750610565826113fc565b5b9050919050565b60606000805461057c906134b7565b80601f01602080910402602001604051908101604052809291908181526020018280546105a8906134b7565b80156105f55780601f106105ca576101008083540402835291602001916105f5565b820191906000526020600020905b8154815290600101906020018083116105d857829003601f168201915b5050505050905090565b600061060a82611466565b610649576040517f08c379a000000000000000000000000000000000000000000000000000000000815260040161064090613183565b60405180910390fd5b6004600083815260200190815260200160002060009054906101000a900473ffffffffffffffffffffffffffffffffffffffff169050919050565b600061068f826109d1565b90508073ffffffffffffffffffffffffffffffffffffffff168373ffffffffffffffffffffffffffffffffffffffff161415610700576040517f08c379a00000000000000000000000000000000000000000000000000000000081526004016106f7906131c3565b60405180910390fd5b8073ffffffffffffffffffffffffffffffffffffffff1661071f6114d2565b73ffffffffffffffffffffffffffffffffffffffff16148061074e575061074d816107486114d2565b6112cf565b5b61078d576040517f08c379a0000000000000000000000000000000000000000000000000000000008152600401610784906130c3565b60405180910390fd5b61079783836114da565b505050565b6107ad6107a76114d2565b82611593565b6107ec576040517f08c379a00000000000000000000000000000000000000000000000000000000081526004016107e3906131e3565b60405180910390fd5b6107f7838383611671565b505050565b6060600061083061080c846118d8565b60405160200161081c9190612e84565b604051602081830303815290604052611a85565b90506108716040518060400160405280600b81526020017f72616e6420736565643a2000000000000000000000000000000000000000000081525082611ab8565b600a80549050816108829190613563565b90506108c36040518060400160405280601181526020017f72616e6420666972737420776f72643a2000000000000000000000000000000081525082611ab8565b600a81815481106108fd577f4e487b7100000000000000000000000000000000000000000000000000000000600052603260045260246000fd5b906000526020600020018054610912906134b7565b80601f016020809104026020016040519081016040528092919081815260200182805461093e906134b7565b801561098b5780601f106109605761010080835404028352916020019161098b565b820191906000526020600020905b81548152906001019060200180831161096e57829003601f168201915b5050505050915050919050565b6109b383838360405180602001604052806000815250610d01565b505050565b60606109cc6109c76008611b54565b6118d8565b905090565b6000806002600084815260200190815260200160002060009054906101000a900473ffffffffffffffffffffffffffffffffffffffff169050600073ffffffffffffffffffffffffffffffffffffffff168173ffffffffffffffffffffffffffffffffffffffff161415610a7a576040517f08c379a0000000000000000000000000000000000000000000000000000000008152600401610a7190613103565b60405180910390fd5b80915050919050565b60008073ffffffffffffffffffffffffffffffffffffffff168273ffffffffffffffffffffffffffffffffffffffff161415610af4576040517f08c379a0000000000000000000000000000000000000000000000000000000008152600401610aeb906130e3565b60405180910390fd5b600360008373ffffffffffffffffffffffffffffffffffffffff1673ffffffffffffffffffffffffffffffffffffffff168152602001908152602001600020549050919050565b606060018054610b4a906134b7565b80601f0160208091040260200160405190810160405280929190818152602001828054610b76906134b7565b8015610bc35780601f10610b9857610100808354040283529160200191610bc3565b820191906000526020600020905b815481529060010190602001808311610ba657829003601f168201915b5050505050905090565b610bdf610bd86114d2565b8383611b62565b5050565b60606000610c17610bf3846118d8565b604051602001610c039190612e1d565b604051602081830303815290604052611a85565b9050600b8054905081610c2a9190613563565b9050600b8181548110610c66577f4e487b7100000000000000000000000000000000000000000000000000000000600052603260045260246000fd5b906000526020600020018054610c7b906134b7565b80601f0160208091040260200160405190810160405280929190818152602001828054610ca7906134b7565b8015610cf45780601f10610cc957610100808354040283529160200191610cf4565b820191906000526020600020905b815481529060010190602001808311610cd757829003601f168201915b5050505050915050919050565b610d12610d0c6114d2565b83611593565b610d51576040517f08c379a0000000000000000000000000000000000000000000000000000000008152600401610d48906131e3565b60405180910390fd5b610d5d84848484611ccf565b50505050565b60606000610d97610d73846118d8565b604051602001610d839190612dfb565b604051602081830303815290604052611a85565b9050600c8054905081610daa9190613563565b9050600c8181548110610de6577f4e487b7100000000000000000000000000000000000000000000000000000000600052603260045260246000fd5b906000526020600020018054610dfb906134b7565b80601f0160208091040260200160405190810160405280929190818152602001828054610e27906134b7565b8015610e745780601f10610e4957610100808354040283529160200191610e74565b820191906000526020600020905b815481529060010190602001808311610e5757829003601f168201915b5050505050915050919050565b6060610e8c82611466565b610ecb576040517f08c379a0000000000000000000000000000000000000000000000000000000008152600401610ec290613163565b60405180910390fd5b6000600660008481526020019081526020016000208054610eeb906134b7565b80601f0160208091040260200160405190810160405280929190818152602001828054610f17906134b7565b8015610f645780601f10610f3957610100808354040283529160200191610f64565b820191906000526020600020905b815481529060010190602001808311610f4757829003601f168201915b505050505090506000610f75611d2b565b9050600081511415610f8b578192505050610fce565b600082511115610fc0578082604051602001610fa8929190612d77565b60405160208183030381529060405292505050610fce565b610fc984611d42565b925050505b919050565b6000610fdf6008611b54565b90506032811161128d57600754341461102d576040517f08c379a000000000000000000000000000000000000000000000000000000000815260040161102490613203565b60405180910390fd5b6000611038826107fc565b9050600061104583610be3565b9050600061105284610d63565b9050600083838360405160200161106b93929190612d9b565b60405160208183030381529060405290506000600982604051602001611092929190612dcc565b60405160208183030381529060405290506110e16040518060400160405280601a81526020017f0a2d2d2d2d2d2d2d2d2d205356472064617461202d2d2d2d2d2d000000000000815250611363565b6110ea81611363565b6111286040518060400160405280601a81526020017f2d2d2d2d2d2d2d2d2d2d2d2d2d2d2d2d2d2d2d2d2d2d2d2d2d0a000000000000815250611363565b600061115c8361113784611de9565b604051602001611148929190612e3f565b604051602081830303815290604052611de9565b90506000816040516020016111719190612ea6565b60405160208183030381529060405290506111c06040518060400160405280601a81526020017f0a2d2d2d2d2d2d2d2d2d20546f6b656e20555249202d2d2d2d2d000000000000815250611363565b6111c981611363565b6112076040518060400160405280601a81526020017f2d2d2d2d2d2d2d2d2d2d2d2d2d2d2d2d2d2d2d2d2d2d2d2d2d0a000000000000815250611363565b6112113389611fa7565b61121b8882611fc5565b61123e604051806060016040528060258152602001613d45602591398933612039565b61124860086120d8565b7febb98688741ffa4c7589bf325de30cf7becb63de567842e1ccdb6cb949fdc82c3389604051611279929190612f2f565b60405180910390a1505050505050506112cc565b6112cb6040518060400160405280601981526020017f43616e206e6f74206d696e74206d6f7265207468616e20353000000000000000815250611363565b5b50565b6000600560008473ffffffffffffffffffffffffffffffffffffffff1673ffffffffffffffffffffffffffffffffffffffff16815260200190815260200160002060008373ffffffffffffffffffffffffffffffffffffffff1673ffffffffffffffffffffffffffffffffffffffff16815260200190815260200160002060009054906101000a900460ff16905092915050565b6113f9816040516024016113779190612f73565b6040516020818303038152906040527f41304fac000000000000000000000000000000000000000000000000000000007bffffffffffffffffffffffffffffffffffffffffffffffffffffffff19166020820180517bffffffffffffffffffffffffffffffffffffffffffffffffffffffff83818316178352505050506120ee565b50565b60007f01ffc9a7000000000000000000000000000000000000000000000000000000007bffffffffffffffffffffffffffffffffffffffffffffffffffffffff1916827bffffffffffffffffffffffffffffffffffffffffffffffffffffffff1916149050919050565b60008073ffffffffffffffffffffffffffffffffffffffff166002600084815260200190815260200160002060009054906101000a900473ffffffffffffffffffffffffffffffffffffffff1673ffffffffffffffffffffffffffffffffffffffff1614159050919050565b600033905090565b816004600083815260200190815260200160002060006101000a81548173ffffffffffffffffffffffffffffffffffffffff021916908373ffffffffffffffffffffffffffffffffffffffff160217905550808273ffffffffffffffffffffffffffffffffffffffff1661154d836109d1565b73ffffffffffffffffffffffffffffffffffffffff167f8c5be1e5ebec7d5bd14f71427d1e84f3dd0314c0f7b2291e5b200ac8c7c3b92560405160405180910390a45050565b600061159e82611466565b6115dd576040517f08c379a00000000000000000000000000000000000000000000000000000000081526004016115d4906130a3565b60405180910390fd5b60006115e8836109d1565b90508073ffffffffffffffffffffffffffffffffffffffff168473ffffffffffffffffffffffffffffffffffffffff16148061162a575061162981856112cf565b5b8061166857508373ffffffffffffffffffffffffffffffffffffffff16611650846105ff565b73ffffffffffffffffffffffffffffffffffffffff16145b91505092915050565b8273ffffffffffffffffffffffffffffffffffffffff16611691826109d1565b73ffffffffffffffffffffffffffffffffffffffff16146116e7576040517f08c379a00000000000000000000000000000000000000000000000000000000081526004016116de90613023565b60405180910390fd5b600073ffffffffffffffffffffffffffffffffffffffff168273ffffffffffffffffffffffffffffffffffffffff161415611757576040517f08c379a000000000000000000000000000000000000000000000000000000000815260040161174e90613063565b60405180910390fd5b611762838383612117565b61176d6000826114da565b6001600360008573ffffffffffffffffffffffffffffffffffffffff1673ffffffffffffffffffffffffffffffffffffffff16815260200190815260200160002060008282546117bd91906133cd565b925050819055506001600360008473ffffffffffffffffffffffffffffffffffffffff1673ffffffffffffffffffffffffffffffffffffffff168152602001908152602001600020600082825461181491906132ec565b92505081905550816002600083815260200190815260200160002060006101000a81548173ffffffffffffffffffffffffffffffffffffffff021916908373ffffffffffffffffffffffffffffffffffffffff160217905550808273ffffffffffffffffffffffffffffffffffffffff168473ffffffffffffffffffffffffffffffffffffffff167fddf252ad1be2c89b69c2b068fc378daa952ba7f163c4a11628f55a4df523b3ef60405160405180910390a46118d383838361211c565b505050565b60606000821415611920576040518060400160405280600181526020017f30000000000000000000000000000000000000000000000000000000000000008152509050611a80565b600082905060005b6000821461195257808061193b9061351a565b915050600a8261194b9190613342565b9150611928565b60008167ffffffffffffffff811115611994577f4e487b7100000000000000000000000000000000000000000000000000000000600052604160045260246000fd5b6040519080825280601f01601f1916602001820160405280156119c65781602001600182028036833780820191505090505b5090505b60008514611a79576001826119df91906133cd565b9150600a856119ee9190613563565b60306119fa91906132ec565b60f81b818381518110611a36577f4e487b7100000000000000000000000000000000000000000000000000000000600052603260045260246000fd5b60200101907effffffffffffffffffffffffffffffffffffffffffffffffffffffffffffff1916908160001a905350600a85611a729190613342565b94506119ca565b8093505050505b919050565b600081604051602001611a989190612d60565b6040516020818303038152906040528051906020012060001c9050919050565b611b508282604051602401611ace929190612f95565b6040516020818303038152906040527f9710a9d0000000000000000000000000000000000000000000000000000000007bffffffffffffffffffffffffffffffffffffffffffffffffffffffff19166020820180517bffffffffffffffffffffffffffffffffffffffffffffffffffffffff83818316178352505050506120ee565b5050565b600081600001549050919050565b8173ffffffffffffffffffffffffffffffffffffffff168373ffffffffffffffffffffffffffffffffffffffff161415611bd1576040517f08c379a0000000000000000000000000000000000000000000000000000000008152600401611bc890613083565b60405180910390fd5b80600560008573ffffffffffffffffffffffffffffffffffffffff1673ffffffffffffffffffffffffffffffffffffffff16815260200190815260200160002060008473ffffffffffffffffffffffffffffffffffffffff1673ffffffffffffffffffffffffffffffffffffffff16815260200190815260200160002060006101000a81548160ff0219169083151502179055508173ffffffffffffffffffffffffffffffffffffffff168373ffffffffffffffffffffffffffffffffffffffff167f17307eab39ab6107e8899845ad3d59bd9653f200f220920489ca2b5937696c3183604051611cc29190612f58565b60405180910390a3505050565b611cda848484611671565b611ce684848484612121565b611d25576040517f08c379a0000000000000000000000000000000000000000000000000000000008152600401611d1c90613003565b60405180910390fd5b50505050565b606060405180602001604052806000815250905090565b6060611d4d82611466565b611d8c576040517f08c379a0000000000000000000000000000000000000000000000000000000008152600401611d83906131a3565b60405180910390fd5b6000611d96611d2b565b90506000815111611db65760405180602001604052806000815250611de1565b80611dc0846118d8565b604051602001611dd1929190612d77565b6040516020818303038152906040525b915050919050565b60606000825190506000811415611e125760405180602001604052806000815250915050611fa2565b60006003600283611e2391906132ec565b611e2d9190613342565b6004611e399190613373565b90506000602082611e4a91906132ec565b67ffffffffffffffff811115611e89577f4e487b7100000000000000000000000000000000000000000000000000000000600052604160045260246000fd5b6040519080825280601f01601f191660200182016040528015611ebb5781602001600182028036833780820191505090505b5090506000604051806060016040528060408152602001613d6a604091399050600181016020830160005b86811015611f5f5760038101905062ffffff818a015116603f8160121c168401518060081b905060ff603f83600c1c1686015116810190508060081b905060ff603f8360061c1686015116810190508060081b905060ff603f831686015116810190508060e01b90508084526004840193505050611ee6565b506003860660018114611f795760028114611f8957611f94565b613d3d60f01b6002830352611f94565b603d60f81b60018303525b508484525050819450505050505b919050565b611fc18282604051806020016040528060008152506122b8565b5050565b611fce82611466565b61200d576040517f08c379a000000000000000000000000000000000000000000000000000000000815260040161200490613123565b60405180910390fd5b80600660008481526020019081526020016000209080519060200190612034929190612510565b505050565b6120d383838360405160240161205193929190612fc5565b6040516020818303038152906040527fe3849f79000000000000000000000000000000000000000000000000000000007bffffffffffffffffffffffffffffffffffffffffffffffffffffffff19166020820180517bffffffffffffffffffffffffffffffffffffffffffffffffffffffff83818316178352505050506120ee565b505050565b6001816000016000828254019250508190555050565b60008151905060006a636f6e736f6c652e6c6f679050602083016000808483855afa5050505050565b505050565b505050565b60006121428473ffffffffffffffffffffffffffffffffffffffff16612313565b156122ab578373ffffffffffffffffffffffffffffffffffffffff1663150b7a0261216b6114d2565b8786866040518563ffffffff1660e01b815260040161218d9493929190612ee3565b602060405180830381600087803b1580156121a757600080fd5b505af19250505080156121d857506040513d601f19601f820116820180604052508101906121d59190612854565b60015b61225b573d8060008114612208576040519150601f19603f3d011682016040523d82523d6000602084013e61220d565b606091505b50600081511415612253576040517f08c379a000000000000000000000000000000000000000000000000000000000815260040161224a90613003565b60405180910390fd5b805181602001fd5b63150b7a0260e01b7bffffffffffffffffffffffffffffffffffffffffffffffffffffffff1916817bffffffffffffffffffffffffffffffffffffffffffffffffffffffff1916149150506122b0565b600190505b949350505050565b6122c28383612336565b6122cf6000848484612121565b61230e576040517f08c379a000000000000000000000000000000000000000000000000000000000815260040161230590613003565b60405180910390fd5b505050565b6000808273ffffffffffffffffffffffffffffffffffffffff163b119050919050565b600073ffffffffffffffffffffffffffffffffffffffff168273ffffffffffffffffffffffffffffffffffffffff1614156123a6576040517f08c379a000000000000000000000000000000000000000000000000000000000815260040161239d90613143565b60405180910390fd5b6123af81611466565b156123ef576040517f08c379a00000000000000000000000000000000000000000000000000000000081526004016123e690613043565b60405180910390fd5b6123fb60008383612117565b6001600360008473ffffffffffffffffffffffffffffffffffffffff1673ffffffffffffffffffffffffffffffffffffffff168152602001908152602001600020600082825461244b91906132ec565b92505081905550816002600083815260200190815260200160002060006101000a81548173ffffffffffffffffffffffffffffffffffffffff021916908373ffffffffffffffffffffffffffffffffffffffff160217905550808273ffffffffffffffffffffffffffffffffffffffff16600073ffffffffffffffffffffffffffffffffffffffff167fddf252ad1be2c89b69c2b068fc378daa952ba7f163c4a11628f55a4df523b3ef60405160405180910390a461250c6000838361211c565b5050565b82805461251c906134b7565b90600052602060002090601f01602090048101928261253e5760008555612585565b82601f1061255757805160ff1916838001178555612585565b82800160010185558215612585579182015b82811115612584578251825591602001919060010190612569565b5b5090506125929190612596565b5090565b5b808211156125af576000816000905550600101612597565b5090565b60006125c66125c184613263565b61323e565b9050828152602081018484840111156125de57600080fd5b6125e9848285613475565b509392505050565b60008135905061260081613ce8565b92915050565b60008135905061261581613cff565b92915050565b60008135905061262a81613d16565b92915050565b60008151905061263f81613d16565b92915050565b600082601f83011261265657600080fd5b81356126668482602086016125b3565b91505092915050565b60008135905061267e81613d2d565b92915050565b60006020828403121561269657600080fd5b60006126a4848285016125f1565b91505092915050565b600080604083850312156126c057600080fd5b60006126ce858286016125f1565b92505060206126df858286016125f1565b9150509250929050565b6000806000606084860312156126fe57600080fd5b600061270c868287016125f1565b935050602061271d868287016125f1565b925050604061272e8682870161266f565b9150509250925092565b6000806000806080858703121561274e57600080fd5b600061275c878288016125f1565b945050602061276d878288016125f1565b935050604061277e8782880161266f565b925050606085013567ffffffffffffffff81111561279b57600080fd5b6127a787828801612645565b91505092959194509250565b600080604083850312156127c657600080fd5b60006127d4858286016125f1565b92505060206127e585828601612606565b9150509250929050565b6000806040838503121561280257600080fd5b6000612810858286016125f1565b92505060206128218582860161266f565b9150509250929050565b60006020828403121561283d57600080fd5b600061284b8482850161261b565b91505092915050565b60006020828403121561286657600080fd5b600061287484828501612630565b91505092915050565b60006020828403121561288f57600080fd5b600061289d8482850161266f565b91505092915050565b6128af81613401565b82525050565b6128be81613413565b82525050565b60006128cf826132a9565b6128d981856132bf565b93506128e9818560208601613484565b6128f281613650565b840191505092915050565b6000612908826132b4565b61291281856132d0565b9350612922818560208601613484565b61292b81613650565b840191505092915050565b6000612941826132b4565b61294b81856132e1565b935061295b818560208601613484565b80840191505092915050565b60008154612974816134b7565b61297e81866132e1565b9450600182166000811461299957600181146129aa576129dd565b60ff198316865281860193506129dd565b6129b385613294565b60005b838110156129d5578154818901526001820191506020810190506129b6565b838801955050505b50505092915050565b60006129f36032836132d0565b91506129fe82613661565b604082019050919050565b6000612a166025836132d0565b9150612a21826136b0565b604082019050919050565b6000612a39601c836132d0565b9150612a44826136ff565b602082019050919050565b6000612a5c600a836132e1565b9150612a6782613728565b600a82019050919050565b6000612a7f6024836132d0565b9150612a8a82613751565b604082019050919050565b6000612aa26019836132d0565b9150612aad826137a0565b602082019050919050565b6000612ac56063836132e1565b9150612ad0826137c9565b606382019050919050565b6000612ae8600b836132e1565b9150612af382613864565b600b82019050919050565b6000612b0b602c836132d0565b9150612b168261388d565b604082019050919050565b6000612b2e600d836132e1565b9150612b39826138dc565b600d82019050919050565b6000612b516038836132d0565b9150612b5c82613905565b604082019050919050565b6000612b74602a836132d0565b9150612b7f82613954565b604082019050919050565b6000612b976029836132d0565b9150612ba2826139a3565b604082019050919050565b6000612bba602e836132d0565b9150612bc5826139f2565b604082019050919050565b6000612bdd6002836132e1565b9150612be882613a41565b600282019050919050565b6000612c006020836132d0565b9150612c0b82613a6a565b602082019050919050565b6000612c236031836132d0565b9150612c2e82613a93565b604082019050919050565b6000612c46602c836132d0565b9150612c5182613ae2565b604082019050919050565b6000612c69602f836132d0565b9150612c7482613b31565b604082019050919050565b6000612c8c600a836132e1565b9150612c9782613b80565b600a82019050919050565b6000612caf6021836132d0565b9150612cba82613ba9565b604082019050919050565b6000612cd2600a836132e1565b9150612cdd82613bf8565b600a82019050919050565b6000612cf5601d836132e1565b9150612d0082613c21565b601d82019050919050565b6000612d186031836132d0565b9150612d2382613c4a565b604082019050919050565b6000612d3b6021836132d0565b9150612d4682613c99565b604082019050919050565b612d5a8161346b565b82525050565b6000612d6c8284612936565b915081905092915050565b6000612d838285612936565b9150612d8f8284612936565b91508190509392505050565b6000612da78286612936565b9150612db38285612936565b9150612dbf8284612936565b9150819050949350505050565b6000612dd88285612967565b9150612de48284612936565b9150612def82612b21565b91508190509392505050565b6000612e0682612a4f565b9150612e128284612936565b915081905092915050565b6000612e2882612adb565b9150612e348284612936565b915081905092915050565b6000612e4a82612c7f565b9150612e568285612936565b9150612e6182612ab8565b9150612e6d8284612936565b9150612e7882612bd0565b91508190509392505050565b6000612e8f82612cc5565b9150612e9b8284612936565b915081905092915050565b6000612eb182612ce8565b9150612ebd8284612936565b915081905092915050565b6000602082019050612edd60008301846128a6565b92915050565b6000608082019050612ef860008301876128a6565b612f0560208301866128a6565b612f126040830185612d51565b8181036060830152612f2481846128c4565b905095945050505050565b6000604082019050612f4460008301856128a6565b612f516020830184612d51565b9392505050565b6000602082019050612f6d60008301846128b5565b92915050565b60006020820190508181036000830152612f8d81846128fd565b905092915050565b60006040820190508181036000830152612faf81856128fd565b9050612fbe6020830184612d51565b9392505050565b60006060820190508181036000830152612fdf81866128fd565b9050612fee6020830185612d51565b612ffb60408301846128a6565b949350505050565b6000602082019050818103600083015261301c816129e6565b9050919050565b6000602082019050818103600083015261303c81612a09565b9050919050565b6000602082019050818103600083015261305c81612a2c565b9050919050565b6000602082019050818103600083015261307c81612a72565b9050919050565b6000602082019050818103600083015261309c81612a95565b9050919050565b600060208201905081810360008301526130bc81612afe565b9050919050565b600060208201905081810360008301526130dc81612b44565b9050919050565b600060208201905081810360008301526130fc81612b67565b9050919050565b6000602082019050818103600083015261311c81612b8a565b9050919050565b6000602082019050818103600083015261313c81612bad565b9050919050565b6000602082019050818103600083015261315c81612bf3565b9050919050565b6000602082019050818103600083015261317c81612c16565b9050919050565b6000602082019050818103600083015261319c81612c39565b9050919050565b600060208201905081810360008301526131bc81612c5c565b9050919050565b600060208201905081810360008301526131dc81612ca2565b9050919050565b600060208201905081810360008301526131fc81612d0b565b9050919050565b6000602082019050818103600083015261321c81612d2e565b9050919050565b60006020820190506132386000830184612d51565b92915050565b6000613248613259565b905061325482826134e9565b919050565b6000604051905090565b600067ffffffffffffffff82111561327e5761327d613621565b5b61328782613650565b9050602081019050919050565b60008190508160005260206000209050919050565b600081519050919050565b600081519050919050565b600082825260208201905092915050565b600082825260208201905092915050565b600081905092915050565b60006132f78261346b565b91506133028361346b565b9250827fffffffffffffffffffffffffffffffffffffffffffffffffffffffffffffffff0382111561333757613336613594565b5b828201905092915050565b600061334d8261346b565b91506133588361346b565b925082613368576133676135c3565b5b828204905092915050565b600061337e8261346b565b91506133898361346b565b9250817fffffffffffffffffffffffffffffffffffffffffffffffffffffffffffffffff04831182151516156133c2576133c1613594565b5b828202905092915050565b60006133d88261346b565b91506133e38361346b565b9250828210156133f6576133f5613594565b5b828203905092915050565b600061340c8261344b565b9050919050565b60008115159050919050565b60007fffffffff0000000000000000000000000000000000000000000000000000000082169050919050565b600073ffffffffffffffffffffffffffffffffffffffff82169050919050565b6000819050919050565b82818337600083830152505050565b60005b838110156134a2578082015181840152602081019050613487565b838111156134b1576000848401525b50505050565b600060028204905060018216806134cf57607f821691505b602082108114156134e3576134e26135f2565b5b50919050565b6134f282613650565b810181811067ffffffffffffffff8211171561351157613510613621565b5b80604052505050565b60006135258261346b565b91507fffffffffffffffffffffffffffffffffffffffffffffffffffffffffffffffff82141561355857613557613594565b5b600182019050919050565b600061356e8261346b565b91506135798361346b565b925082613589576135886135c3565b5b828206905092915050565b7f4e487b7100000000000000000000000000000000000000000000000000000000600052601160045260246000fd5b7f4e487b7100000000000000000000000000000000000000000000000000000000600052601260045260246000fd5b7f4e487b7100000000000000000000000000000000000000000000000000000000600052602260045260246000fd5b7f4e487b7100000000000000000000000000000000000000000000000000000000600052604160045260246000fd5b6000601f19601f8301169050919050565b7f4552433732313a207472616e7366657220746f206e6f6e20455243373231526560008201527f63656976657220696d706c656d656e7465720000000000000000000000000000602082015250565b7f4552433732313a207472616e736665722066726f6d20696e636f72726563742060008201527f6f776e6572000000000000000000000000000000000000000000000000000000602082015250565b7f4552433732313a20746f6b656e20616c7265616479206d696e74656400000000600082015250565b7f54484952445f574f524400000000000000000000000000000000000000000000600082015250565b7f4552433732313a207472616e7366657220746f20746865207a65726f2061646460008201527f7265737300000000000000000000000000000000000000000000000000000000602082015250565b7f4552433732313a20617070726f766520746f2063616c6c657200000000000000600082015250565b7f222c20226465736372697074696f6e223a20224120686967686c79206163636c60008201527f61696d656420636f6c6c656374696f6e206f6620737175617265732e222c202260208201527f696d616765223a2022646174613a696d6167652f7376672b786d6c3b6261736560408201527f36342c0000000000000000000000000000000000000000000000000000000000606082015250565b7f5345434f4e445f574f5244000000000000000000000000000000000000000000600082015250565b7f4552433732313a206f70657261746f7220717565727920666f72206e6f6e657860008201527f697374656e7420746f6b656e0000000000000000000000000000000000000000602082015250565b7f3c2f746578743e3c2f7376673e00000000000000000000000000000000000000600082015250565b7f4552433732313a20617070726f76652063616c6c6572206973206e6f74206f7760008201527f6e6572206e6f7220617070726f76656420666f7220616c6c0000000000000000602082015250565b7f4552433732313a2062616c616e636520717565727920666f7220746865207a6560008201527f726f206164647265737300000000000000000000000000000000000000000000602082015250565b7f4552433732313a206f776e657220717565727920666f72206e6f6e657869737460008201527f656e7420746f6b656e0000000000000000000000000000000000000000000000602082015250565b7f45524337323155524953746f726167653a2055524920736574206f66206e6f6e60008201527f6578697374656e7420746f6b656e000000000000000000000000000000000000602082015250565b7f227d000000000000000000000000000000000000000000000000000000000000600082015250565b7f4552433732313a206d696e7420746f20746865207a65726f2061646472657373600082015250565b7f45524337323155524953746f726167653a2055524920717565727920666f722060008201527f6e6f6e6578697374656e7420746f6b656e000000000000000000000000000000602082015250565b7f4552433732313a20617070726f76656420717565727920666f72206e6f6e657860008201527f697374656e7420746f6b656e0000000000000000000000000000000000000000602082015250565b7f4552433732314d657461646174613a2055524920717565727920666f72206e6f60008201527f6e6578697374656e7420746f6b656e0000000000000000000000000000000000602082015250565b7f7b226e616d65223a202200000000000000000000000000000000000000000000600082015250565b7f4552433732313a20617070726f76616c20746f2063757272656e74206f776e6560008201527f7200000000000000000000000000000000000000000000000000000000000000602082015250565b7f46495253545f574f524400000000000000000000000000000000000000000000600082015250565b7f646174613a6170706c69636174696f6e2f6a736f6e3b6261736536342c000000600082015250565b7f4552433732313a207472616e736665722063616c6c6572206973206e6f74206f60008201527f776e6572206e6f7220617070726f766564000000000000000000000000000000602082015250565b7f4e6f7420656e6f756768204554482073656e743b20636865636b20707269636560008201527f2100000000000000000000000000000000000000000000000000000000000000602082015250565b613cf181613401565b8114613cfc57600080fd5b50565b613d0881613413565b8114613d1357600080fd5b50565b613d1f8161341f565b8114613d2a57600080fd5b50565b613d368161346b565b8114613d4157600080fd5b5056fe416e204e465420772f20494420257320686173206265656e206d696e74656420746f2025734142434445464748494a4b4c4d4e4f505152535455565758595a6162636465666768696a6b6c6d6e6f707172737475767778797a303132333435363738392b2fa26469706673582212202148ecc33c9c18ec86a69e2afc1938bd8ea087590d7a04522713340c9ec5005d64736f6c634300080400333c73766720786d6c6e733d27687474703a2f2f7777772e77332e6f72672f323030302f73766727207072657365727665417370656374526174696f3d27784d696e594d696e206d656574272076696577426f783d273020302033353020333530273e3c7374796c653e2e62617365207b2066696c6c3a2077686974653b20666f6e742d66616d696c793a2073657269663b20666f6e742d73697a653a20323470783b207d3c2f7374796c653e3c726563742077696474683d273130302527206865696768743d2731303025272066696c6c3d27626c61636b27202f3e3c7465787420783d273530252720793d273530252720636c6173733d27626173652720646f6d696e616e742d626173656c696e653d276d6964646c652720746578742d616e63686f723d276d6964646c65273e",
  "linkReferences": {},
  "deployedLinkReferences": {}
}