{
  "_format": "hh-sol-artifact-1",
  "contractName": "MyEpicNFT",
  "sourceName": "contracts/MyEpicNFT.sol",
  "abi": [
    {
      "inputs": [],
      "stateMutability": "nonpayable",
      "type": "constructor"
    },
    {
      "anonymous": false,
      "inputs": [
        {
          "indexed": true,
          "internalType": "address",
          "name": "owner",
          "type": "address"
        },
        {
          "indexed": true,
          "internalType": "address",
          "name": "approved",
          "type": "address"
        },
        {
          "indexed": true,
          "internalType": "uint256",
          "name": "tokenId",
          "type": "uint256"
        }
      ],
      "name": "Approval",
      "type": "event"
    },
    {
      "anonymous": false,
      "inputs": [
        {
          "indexed": true,
          "internalType": "address",
          "name": "owner",
          "type": "address"
        },
        {
          "indexed": true,
          "internalType": "address",
          "name": "operator",
          "type": "address"
        },
        {
          "indexed": false,
          "internalType": "bool",
          "name": "approved",
          "type": "bool"
        }
      ],
      "name": "ApprovalForAll",
      "type": "event"
    },
    {
      "anonymous": false,
      "inputs": [
        {
          "indexed": false,
          "internalType": "address",
          "name": "sender",
          "type": "address"
        },
        {
          "indexed": false,
          "internalType": "uint256",
          "name": "tokenId",
          "type": "uint256"
        }
      ],
      "name": "NewEpicNFTMinted",
      "type": "event"
    },
    {
      "anonymous": false,
      "inputs": [
        {
          "indexed": true,
          "internalType": "address",
          "name": "from",
          "type": "address"
        },
        {
          "indexed": true,
          "internalType": "address",
          "name": "to",
          "type": "address"
        },
        {
          "indexed": true,
          "internalType": "uint256",
          "name": "tokenId",
          "type": "uint256"
        }
      ],
      "name": "Transfer",
      "type": "event"
    },
    {
      "inputs": [
        {
          "internalType": "address",
          "name": "to",
          "type": "address"
        },
        {
          "internalType": "uint256",
          "name": "tokenId",
          "type": "uint256"
        }
      ],
      "name": "approve",
      "outputs": [],
      "stateMutability": "nonpayable",
      "type": "function"
    },
    {
      "inputs": [
        {
          "internalType": "address",
          "name": "owner",
          "type": "address"
        }
      ],
      "name": "balanceOf",
      "outputs": [
        {
          "internalType": "uint256",
          "name": "",
          "type": "uint256"
        }
      ],
      "stateMutability": "view",
      "type": "function"
    },
    {
      "inputs": [
        {
          "internalType": "uint256",
          "name": "tokenId",
          "type": "uint256"
        }
      ],
      "name": "getApproved",
      "outputs": [
        {
          "internalType": "address",
          "name": "",
          "type": "address"
        }
      ],
      "stateMutability": "view",
      "type": "function"
    },
    {
      "inputs": [],
      "name": "getCurrentTokenId",
      "outputs": [
        {
          "internalType": "string",
          "name": "",
          "type": "string"
        }
      ],
      "stateMutability": "view",
      "type": "function"
    },
    {
      "inputs": [
        {
          "internalType": "address",
          "name": "owner",
          "type": "address"
        },
        {
          "internalType": "address",
          "name": "operator",
          "type": "address"
        }
      ],
      "name": "isApprovedForAll",
      "outputs": [
        {
          "internalType": "bool",
          "name": "",
          "type": "bool"
        }
      ],
      "stateMutability": "view",
      "type": "function"
    },
    {
      "inputs": [],
      "name": "makeAnEpicNFT",
      "outputs": [],
      "stateMutability": "payable",
      "type": "function"
    },
    {
      "inputs": [],
      "name": "name",
      "outputs": [
        {
          "internalType": "string",
          "name": "",
          "type": "string"
        }
      ],
      "stateMutability": "view",
      "type": "function"
    },
    {
      "inputs": [
        {
          "internalType": "uint256",
          "name": "tokenId",
          "type": "uint256"
        }
      ],
      "name": "ownerOf",
      "outputs": [
        {
          "internalType": "address",
          "name": "",
          "type": "address"
        }
      ],
      "stateMutability": "view",
      "type": "function"
    },
    {
      "inputs": [
        {
          "internalType": "uint256",
          "name": "tokenID",
          "type": "uint256"
        }
      ],
      "name": "pickRandomFirstWord",
      "outputs": [
        {
          "internalType": "string",
          "name": "",
          "type": "string"
        }
      ],
      "stateMutability": "view",
      "type": "function"
    },
    {
      "inputs": [
        {
          "internalType": "uint256",
          "name": "tokenID",
          "type": "uint256"
        }
      ],
      "name": "pickRandomSecondWord",
      "outputs": [
        {
          "internalType": "string",
          "name": "",
          "type": "string"
        }
      ],
      "stateMutability": "view",
      "type": "function"
    },
    {
      "inputs": [
        {
          "internalType": "uint256",
          "name": "tokenID",
          "type": "uint256"
        }
      ],
      "name": "pickRandomThirdWord",
      "outputs": [
        {
          "internalType": "string",
          "name": "",
          "type": "string"
        }
      ],
      "stateMutability": "view",
      "type": "function"
    },
    {
      "inputs": [
        {
          "internalType": "address",
          "name": "from",
          "type": "address"
        },
        {
          "internalType": "address",
          "name": "to",
          "type": "address"
        },
        {
          "internalType": "uint256",
          "name": "tokenId",
          "type": "uint256"
        }
      ],
      "name": "safeTransferFrom",
      "outputs": [],
      "stateMutability": "nonpayable",
      "type": "function"
    },
    {
      "inputs": [
        {
          "internalType": "address",
          "name": "from",
          "type": "address"
        },
        {
          "internalType": "address",
          "name": "to",
          "type": "address"
        },
        {
          "internalType": "uint256",
          "name": "tokenId",
          "type": "uint256"
        },
        {
          "internalType": "bytes",
          "name": "_data",
          "type": "bytes"
        }
      ],
      "name": "safeTransferFrom",
      "outputs": [],
      "stateMutability": "nonpayable",
      "type": "function"
    },
    {
      "inputs": [
        {
          "internalType": "address",
          "name": "operator",
          "type": "address"
        },
        {
          "internalType": "bool",
          "name": "approved",
          "type": "bool"
        }
      ],
      "name": "setApprovalForAll",
      "outputs": [],
      "stateMutability": "nonpayable",
      "type": "function"
    },
    {
      "inputs": [
        {
          "internalType": "bytes4",
          "name": "interfaceId",
          "type": "bytes4"
        }
      ],
      "name": "supportsInterface",
      "outputs": [
        {
          "internalType": "bool",
          "name": "",
          "type": "bool"
        }
      ],
      "stateMutability": "view",
      "type": "function"
    },
    {
      "inputs": [],
      "name": "symbol",
      "outputs": [
        {
          "internalType": "string",
          "name": "",
          "type": "string"
        }
      ],
      "stateMutability": "view",
      "type": "function"
    },
    {
      "inputs": [
        {
          "internalType": "uint256",
          "name": "tokenId",
          "type": "uint256"
        }
      ],
      "name": "tokenURI",
      "outputs": [
        {
          "internalType": "string",
          "name": "",
          "type": "string"
        }
      ],
      "stateMutability": "view",
      "type": "function"
    },
    {
      "inputs": [
        {
          "internalType": "address",
          "name": "from",
          "type": "address"
        },
        {
          "internalType": "address",
          "name": "to",
          "type": "address"
        },
        {
          "internalType": "uint256",
          "name": "tokenId",
          "type": "uint256"
        }
      ],
      "name": "transferFrom",
      "outputs": [],
      "stateMutability": "nonpayable",
      "type": "function"
    }
  ],
  "bytecode": "0x608060405266038d7ea4c6800060075560405180610160016040528061012f81526020016200481061012f9139600990805190602001906200004392919062000689565b506040518060c001604052806040518060400160405280600881526020017f656c656374696f6e00000000000000000000000000000000000000000000000081525081526020016040518060400160405280600781526020017f636f6e6e6563740000000000000000000000000000000000000000000000000081525081526020016040518060400160405280600981526020017f53696e6761706f7265000000000000000000000000000000000000000000000081525081526020016040518060400160405280600681526020017f74726176656c000000000000000000000000000000000000000000000000000081525081526020016040518060400160405280600581526020017f756e74696c00000000000000000000000000000000000000000000000000000081525081526020016040518060400160405280600881526020017f736f6d65626f6479000000000000000000000000000000000000000000000000815250815250600a906006620001c19291906200071a565b506040518060c001604052806040518060400160405280600481526020017f6c6f636b0000000000000000000000000000000000000000000000000000000081525081526020016040518060400160405280600281526020017f646f00000000000000000000000000000000000000000000000000000000000081525081526020016040518060400160405280600381526020017f627579000000000000000000000000000000000000000000000000000000000081525081526020016040518060400160405280600881526020017f686573697461746500000000000000000000000000000000000000000000000081525081526020016040518060400160405280600781526020017f70726f766964650000000000000000000000000000000000000000000000000081525081526020016040518060400160405280600681526020017f6163636573730000000000000000000000000000000000000000000000000000815250815250600b9060066200033f9291906200071a565b506040518060c001604052806040518060400160405280600781526020017f70726f766964650000000000000000000000000000000000000000000000000081525081526020016040518060400160405280600781526020017f706f70756c61720000000000000000000000000000000000000000000000000081525081526020016040518060400160405280600a81526020017f6578706572696d656e740000000000000000000000000000000000000000000081525081526020016040518060400160405280600581526020017f617761726500000000000000000000000000000000000000000000000000000081525081526020016040518060400160405280600881526020017f7175657374696f6e00000000000000000000000000000000000000000000000081525081526020016040518060400160405280600381526020017f7075740000000000000000000000000000000000000000000000000000000000815250815250600c906006620004bd9291906200071a565b50348015620004cb57600080fd5b506040518060400160405280600981526020017f5371756172654e465400000000000000000000000000000000000000000000008152506040518060400160405280600681526020017f535155415245000000000000000000000000000000000000000000000000000081525081600090805190602001906200055092919062000689565b5080600190805190602001906200056992919062000689565b505050620005b76040518060400160405280601881526020017f54686973206973206d79204e465420636f6e74726163742e0000000000000000815250620005bd60201b620013dd1760201c565b6200093b565b6200065d81604051602401620005d491906200084f565b6040516020818303038152906040527f41304fac000000000000000000000000000000000000000000000000000000007bffffffffffffffffffffffffffffffffffffffffffffffffffffffff19166020820180517bffffffffffffffffffffffffffffffffffffffffffffffffffffffff83818316178352505050506200066060201b60201c565b50565b60008151905060006a636f6e736f6c652e6c6f679050602083016000808483855afa5050505050565b8280546200069790620008c5565b90600052602060002090601f016020900481019282620006bb576000855562000707565b82601f10620006d657805160ff191683800117855562000707565b8280016001018555821562000707579182015b8281111562000706578251825591602001919060010190620006e9565b5b50905062000716919062000781565b5090565b8280548282559060005260206000209081019282156200076e579160200282015b828111156200076d5782518290805190602001906200075c92919062000689565b50916020019190600101906200073b565b5b5090506200077d9190620007a0565b5090565b5b808211156200079c57600081600090555060010162000782565b5090565b5b80821115620007c45760008181620007ba9190620007c8565b50600101620007a1565b5090565b508054620007d690620008c5565b6000825580601f10620007ea57506200080b565b601f0160209004906000526020600020908101906200080a919062000781565b5b50565b60006200081b8262000873565b6200082781856200087e565b9350620008398185602086016200088f565b62000844816200092a565b840191505092915050565b600060208201905081810360008301526200086b81846200080e565b905092915050565b600081519050919050565b600082825260208201905092915050565b60005b83811015620008af57808201518184015260208101905062000892565b83811115620008bf576000848401525b50505050565b60006002820490506001821680620008de57607f821691505b60208210811415620008f557620008f4620008fb565b5b50919050565b7f4e487b7100000000000000000000000000000000000000000000000000000000600052602260045260246000fd5b6000601f19601f8301169050919050565b613ec5806200094b6000396000f3fe6080604052600436106101095760003560e01c806370a0823111610095578063b88d4fde11610064578063b88d4fde146103a1578063c575757a146103ca578063c87b56dd14610407578063de9d132f14610444578063e985e9c51461044e57610109565b806370a08231146102d357806395d89b4114610310578063a22cb4651461033b578063b187301f1461036457610109565b806323b872dd116100dc57806323b872dd146101dc5780632de38d681461020557806342842e0e14610242578063561892361461026b5780636352211e1461029657610109565b806301ffc9a71461010e57806306fdde031461014b578063081812fc14610176578063095ea7b3146101b3575b600080fd5b34801561011a57600080fd5b50610135600480360381019061013091906128a5565b61048b565b6040516101429190612ff5565b60405180910390f35b34801561015757600080fd5b5061016061056d565b60405161016d9190613010565b60405180910390f35b34801561018257600080fd5b5061019d600480360381019061019891906128f7565b6105ff565b6040516101aa9190612f65565b60405180910390f35b3480156101bf57600080fd5b506101da60048036038101906101d59190612869565b610684565b005b3480156101e857600080fd5b5061020360048036038101906101fe9190612763565b61079c565b005b34801561021157600080fd5b5061022c600480360381019061022791906128f7565b6107fc565b6040516102399190613010565b60405180910390f35b34801561024e57600080fd5b5061026960048036038101906102649190612763565b610998565b005b34801561027757600080fd5b506102806109b8565b60405161028d9190613010565b60405180910390f35b3480156102a257600080fd5b506102bd60048036038101906102b891906128f7565b6109d1565b6040516102ca9190612f65565b60405180910390f35b3480156102df57600080fd5b506102fa60048036038101906102f591906126fe565b610a83565b60405161030791906132e0565b60405180910390f35b34801561031c57600080fd5b50610325610b3b565b6040516103329190613010565b60405180910390f35b34801561034757600080fd5b50610362600480360381019061035d919061282d565b610bcd565b005b34801561037057600080fd5b5061038b600480360381019061038691906128f7565b610be3565b6040516103989190613010565b60405180910390f35b3480156103ad57600080fd5b506103c860048036038101906103c391906127b2565b610d01565b005b3480156103d657600080fd5b506103f160048036038101906103ec91906128f7565b610d63565b6040516103fe9190613010565b60405180910390f35b34801561041357600080fd5b5061042e600480360381019061042991906128f7565b610e81565b60405161043b9190613010565b60405180910390f35b61044c610fd3565b005b34801561045a57600080fd5b5061047560048036038101906104709190612727565b611349565b6040516104829190612ff5565b60405180910390f35b60007f80ac58cd000000000000000000000000000000000000000000000000000000007bffffffffffffffffffffffffffffffffffffffffffffffffffffffff1916827bffffffffffffffffffffffffffffffffffffffffffffffffffffffff1916148061055657507f5b5e139f000000000000000000000000000000000000000000000000000000007bffffffffffffffffffffffffffffffffffffffffffffffffffffffff1916827bffffffffffffffffffffffffffffffffffffffffffffffffffffffff1916145b80610566575061056582611476565b5b9050919050565b60606000805461057c90613574565b80601f01602080910402602001604051908101604052809291908181526020018280546105a890613574565b80156105f55780601f106105ca576101008083540402835291602001916105f5565b820191906000526020600020905b8154815290600101906020018083116105d857829003601f168201915b5050505050905090565b600061060a826114e0565b610649576040517f08c379a000000000000000000000000000000000000000000000000000000000815260040161064090613220565b60405180910390fd5b6004600083815260200190815260200160002060009054906101000a900473ffffffffffffffffffffffffffffffffffffffff169050919050565b600061068f826109d1565b90508073ffffffffffffffffffffffffffffffffffffffff168373ffffffffffffffffffffffffffffffffffffffff161415610700576040517f08c379a00000000000000000000000000000000000000000000000000000000081526004016106f790613280565b60405180910390fd5b8073ffffffffffffffffffffffffffffffffffffffff1661071f61154c565b73ffffffffffffffffffffffffffffffffffffffff16148061074e575061074d8161074861154c565b611349565b5b61078d576040517f08c379a000000000000000000000000000000000000000000000000000000000815260040161078490613160565b60405180910390fd5b6107978383611554565b505050565b6107ad6107a761154c565b8261160d565b6107ec576040517f08c379a00000000000000000000000000000000000000000000000000000000081526004016107e3906132a0565b60405180910390fd5b6107f78383836116eb565b505050565b6060600061083061080c84611952565b60405160200161081c9190612f21565b604051602081830303815290604052611aff565b90506108716040518060400160405280600b81526020017f72616e6420736565643a2000000000000000000000000000000000000000000081525082611b32565b600a80549050816108829190613620565b90506108c36040518060400160405280601181526020017f72616e6420666972737420776f72643a2000000000000000000000000000000081525082611b32565b600a81815481106108fd577f4e487b7100000000000000000000000000000000000000000000000000000000600052603260045260246000fd5b90600052602060002001805461091290613574565b80601f016020809104026020016040519081016040528092919081815260200182805461093e90613574565b801561098b5780601f106109605761010080835404028352916020019161098b565b820191906000526020600020905b81548152906001019060200180831161096e57829003601f168201915b5050505050915050919050565b6109b383838360405180602001604052806000815250610d01565b505050565b60606109cc6109c76008611bce565b611952565b905090565b6000806002600084815260200190815260200160002060009054906101000a900473ffffffffffffffffffffffffffffffffffffffff169050600073ffffffffffffffffffffffffffffffffffffffff168173ffffffffffffffffffffffffffffffffffffffff161415610a7a576040517f08c379a0000000000000000000000000000000000000000000000000000000008152600401610a71906131a0565b60405180910390fd5b80915050919050565b60008073ffffffffffffffffffffffffffffffffffffffff168273ffffffffffffffffffffffffffffffffffffffff161415610af4576040517f08c379a0000000000000000000000000000000000000000000000000000000008152600401610aeb90613180565b60405180910390fd5b600360008373ffffffffffffffffffffffffffffffffffffffff1673ffffffffffffffffffffffffffffffffffffffff168152602001908152602001600020549050919050565b606060018054610b4a90613574565b80601f0160208091040260200160405190810160405280929190818152602001828054610b7690613574565b8015610bc35780601f10610b9857610100808354040283529160200191610bc3565b820191906000526020600020905b815481529060010190602001808311610ba657829003601f168201915b5050505050905090565b610bdf610bd861154c565b8383611bdc565b5050565b60606000610c17610bf384611952565b604051602001610c039190612eba565b604051602081830303815290604052611aff565b9050600b8054905081610c2a9190613620565b9050600b8181548110610c66577f4e487b7100000000000000000000000000000000000000000000000000000000600052603260045260246000fd5b906000526020600020018054610c7b90613574565b80601f0160208091040260200160405190810160405280929190818152602001828054610ca790613574565b8015610cf45780601f10610cc957610100808354040283529160200191610cf4565b820191906000526020600020905b815481529060010190602001808311610cd757829003601f168201915b5050505050915050919050565b610d12610d0c61154c565b8361160d565b610d51576040517f08c379a0000000000000000000000000000000000000000000000000000000008152600401610d48906132a0565b60405180910390fd5b610d5d84848484611d49565b50505050565b60606000610d97610d7384611952565b604051602001610d839190612e98565b604051602081830303815290604052611aff565b9050600c8054905081610daa9190613620565b9050600c8181548110610de6577f4e487b7100000000000000000000000000000000000000000000000000000000600052603260045260246000fd5b906000526020600020018054610dfb90613574565b80601f0160208091040260200160405190810160405280929190818152602001828054610e2790613574565b8015610e745780601f10610e4957610100808354040283529160200191610e74565b820191906000526020600020905b815481529060010190602001808311610e5757829003601f168201915b5050505050915050919050565b6060610e8c826114e0565b610ecb576040517f08c379a0000000000000000000000000000000000000000000000000000000008152600401610ec290613200565b60405180910390fd5b6000600660008481526020019081526020016000208054610eeb90613574565b80601f0160208091040260200160405190810160405280929190818152602001828054610f1790613574565b8015610f645780601f10610f3957610100808354040283529160200191610f64565b820191906000526020600020905b815481529060010190602001808311610f4757829003601f168201915b505050505090506000610f75611da5565b9050600081511415610f8b578192505050610fce565b600082511115610fc0578082604051602001610fa8929190612e14565b60405160208183030381529060405292505050610fce565b610fc984611dbc565b925050505b919050565b6000610fdf6008611bce565b90506110206040518060400160405280600381526020017f69643a000000000000000000000000000000000000000000000000000000000081525082611b32565b60328110156112cd57600754341461106d576040517f08c379a0000000000000000000000000000000000000000000000000000000008152600401611064906132c0565b60405180910390fd5b6000611078826107fc565b9050600061108583610be3565b9050600061109284610d63565b905060008383836040516020016110ab93929190612e38565b604051602081830303815290604052905060006009826040516020016110d2929190612e69565b60405160208183030381529060405290506111216040518060400160405280601a81526020017f0a2d2d2d2d2d2d2d2d2d205356472064617461202d2d2d2d2d2d0000000000008152506113dd565b61112a816113dd565b6111686040518060400160405280601a81526020017f2d2d2d2d2d2d2d2d2d2d2d2d2d2d2d2d2d2d2d2d2d2d2d2d2d0a0000000000008152506113dd565b600061119c8361117784611e63565b604051602001611188929190612edc565b604051602081830303815290604052611e63565b90506000816040516020016111b19190612f43565b60405160208183030381529060405290506112006040518060400160405280601a81526020017f0a2d2d2d2d2d2d2d2d2d20546f6b656e20555249202d2d2d2d2d0000000000008152506113dd565b611209816113dd565b6112476040518060400160405280601a81526020017f2d2d2d2d2d2d2d2d2d2d2d2d2d2d2d2d2d2d2d2d2d2d2d2d2d0a0000000000008152506113dd565b6112513389612021565b61125b888261203f565b61127e604051806060016040528060258152602001613e2b6025913989336120b3565b6112886008612152565b7febb98688741ffa4c7589bf325de30cf7becb63de567842e1ccdb6cb949fdc82c33896040516112b9929190612fcc565b60405180910390a150505050505050611346565b61130b6040518060400160405280601981526020017f43616e206e6f74206d696e74206d6f7265207468616e203530000000000000008152506113dd565b6040517f08c379a000000000000000000000000000000000000000000000000000000000815260040161133d90613260565b60405180910390fd5b50565b6000600560008473ffffffffffffffffffffffffffffffffffffffff1673ffffffffffffffffffffffffffffffffffffffff16815260200190815260200160002060008373ffffffffffffffffffffffffffffffffffffffff1673ffffffffffffffffffffffffffffffffffffffff16815260200190815260200160002060009054906101000a900460ff16905092915050565b611473816040516024016113f19190613010565b6040516020818303038152906040527f41304fac000000000000000000000000000000000000000000000000000000007bffffffffffffffffffffffffffffffffffffffffffffffffffffffff19166020820180517bffffffffffffffffffffffffffffffffffffffffffffffffffffffff8381831617835250505050612168565b50565b60007f01ffc9a7000000000000000000000000000000000000000000000000000000007bffffffffffffffffffffffffffffffffffffffffffffffffffffffff1916827bffffffffffffffffffffffffffffffffffffffffffffffffffffffff1916149050919050565b60008073ffffffffffffffffffffffffffffffffffffffff166002600084815260200190815260200160002060009054906101000a900473ffffffffffffffffffffffffffffffffffffffff1673ffffffffffffffffffffffffffffffffffffffff1614159050919050565b600033905090565b816004600083815260200190815260200160002060006101000a81548173ffffffffffffffffffffffffffffffffffffffff021916908373ffffffffffffffffffffffffffffffffffffffff160217905550808273ffffffffffffffffffffffffffffffffffffffff166115c7836109d1565b73ffffffffffffffffffffffffffffffffffffffff167f8c5be1e5ebec7d5bd14f71427d1e84f3dd0314c0f7b2291e5b200ac8c7c3b92560405160405180910390a45050565b6000611618826114e0565b611657576040517f08c379a000000000000000000000000000000000000000000000000000000000815260040161164e90613140565b60405180910390fd5b6000611662836109d1565b90508073ffffffffffffffffffffffffffffffffffffffff168473ffffffffffffffffffffffffffffffffffffffff1614806116a457506116a38185611349565b5b806116e257508373ffffffffffffffffffffffffffffffffffffffff166116ca846105ff565b73ffffffffffffffffffffffffffffffffffffffff16145b91505092915050565b8273ffffffffffffffffffffffffffffffffffffffff1661170b826109d1565b73ffffffffffffffffffffffffffffffffffffffff1614611761576040517f08c379a0000000000000000000000000000000000000000000000000000000008152600401611758906130c0565b60405180910390fd5b600073ffffffffffffffffffffffffffffffffffffffff168273ffffffffffffffffffffffffffffffffffffffff1614156117d1576040517f08c379a00000000000000000000000000000000000000000000000000000000081526004016117c890613100565b60405180910390fd5b6117dc838383612191565b6117e7600082611554565b6001600360008573ffffffffffffffffffffffffffffffffffffffff1673ffffffffffffffffffffffffffffffffffffffff1681526020019081526020016000206000828254611837919061348a565b925050819055506001600360008473ffffffffffffffffffffffffffffffffffffffff1673ffffffffffffffffffffffffffffffffffffffff168152602001908152602001600020600082825461188e91906133a9565b92505081905550816002600083815260200190815260200160002060006101000a81548173ffffffffffffffffffffffffffffffffffffffff021916908373ffffffffffffffffffffffffffffffffffffffff160217905550808273ffffffffffffffffffffffffffffffffffffffff168473ffffffffffffffffffffffffffffffffffffffff167fddf252ad1be2c89b69c2b068fc378daa952ba7f163c4a11628f55a4df523b3ef60405160405180910390a461194d838383612196565b505050565b6060600082141561199a576040518060400160405280600181526020017f30000000000000000000000000000000000000000000000000000000000000008152509050611afa565b600082905060005b600082146119cc5780806119b5906135d7565b915050600a826119c591906133ff565b91506119a2565b60008167ffffffffffffffff811115611a0e577f4e487b7100000000000000000000000000000000000000000000000000000000600052604160045260246000fd5b6040519080825280601f01601f191660200182016040528015611a405781602001600182028036833780820191505090505b5090505b60008514611af357600182611a59919061348a565b9150600a85611a689190613620565b6030611a7491906133a9565b60f81b818381518110611ab0577f4e487b7100000000000000000000000000000000000000000000000000000000600052603260045260246000fd5b60200101907effffffffffffffffffffffffffffffffffffffffffffffffffffffffffffff1916908160001a905350600a85611aec91906133ff565b9450611a44565b8093505050505b919050565b600081604051602001611b129190612dfd565b6040516020818303038152906040528051906020012060001c9050919050565b611bca8282604051602401611b48929190613032565b6040516020818303038152906040527f9710a9d0000000000000000000000000000000000000000000000000000000007bffffffffffffffffffffffffffffffffffffffffffffffffffffffff19166020820180517bffffffffffffffffffffffffffffffffffffffffffffffffffffffff8381831617835250505050612168565b5050565b600081600001549050919050565b8173ffffffffffffffffffffffffffffffffffffffff168373ffffffffffffffffffffffffffffffffffffffff161415611c4b576040517f08c379a0000000000000000000000000000000000000000000000000000000008152600401611c4290613120565b60405180910390fd5b80600560008573ffffffffffffffffffffffffffffffffffffffff1673ffffffffffffffffffffffffffffffffffffffff16815260200190815260200160002060008473ffffffffffffffffffffffffffffffffffffffff1673ffffffffffffffffffffffffffffffffffffffff16815260200190815260200160002060006101000a81548160ff0219169083151502179055508173ffffffffffffffffffffffffffffffffffffffff168373ffffffffffffffffffffffffffffffffffffffff167f17307eab39ab6107e8899845ad3d59bd9653f200f220920489ca2b5937696c3183604051611d3c9190612ff5565b60405180910390a3505050565b611d548484846116eb565b611d608484848461219b565b611d9f576040517f08c379a0000000000000000000000000000000000000000000000000000000008152600401611d96906130a0565b60405180910390fd5b50505050565b606060405180602001604052806000815250905090565b6060611dc7826114e0565b611e06576040517f08c379a0000000000000000000000000000000000000000000000000000000008152600401611dfd90613240565b60405180910390fd5b6000611e10611da5565b90506000815111611e305760405180602001604052806000815250611e5b565b80611e3a84611952565b604051602001611e4b929190612e14565b6040516020818303038152906040525b915050919050565b60606000825190506000811415611e8c576040518060200160405280600081525091505061201c565b60006003600283611e9d91906133a9565b611ea791906133ff565b6004611eb39190613430565b90506000602082611ec491906133a9565b67ffffffffffffffff811115611f03577f4e487b7100000000000000000000000000000000000000000000000000000000600052604160045260246000fd5b6040519080825280601f01601f191660200182016040528015611f355781602001600182028036833780820191505090505b5090506000604051806060016040528060408152602001613e50604091399050600181016020830160005b86811015611fd95760038101905062ffffff818a015116603f8160121c168401518060081b905060ff603f83600c1c1686015116810190508060081b905060ff603f8360061c1686015116810190508060081b905060ff603f831686015116810190508060e01b90508084526004840193505050611f60565b506003860660018114611ff357600281146120035761200e565b613d3d60f01b600283035261200e565b603d60f81b60018303525b508484525050819450505050505b919050565b61203b828260405180602001604052806000815250612332565b5050565b612048826114e0565b612087576040517f08c379a000000000000000000000000000000000000000000000000000000000815260040161207e906131c0565b60405180910390fd5b806006600084815260200190815260200160002090805190602001906120ae92919061258a565b505050565b61214d8383836040516024016120cb93929190613062565b6040516020818303038152906040527fe3849f79000000000000000000000000000000000000000000000000000000007bffffffffffffffffffffffffffffffffffffffffffffffffffffffff19166020820180517bffffffffffffffffffffffffffffffffffffffffffffffffffffffff8381831617835250505050612168565b505050565b6001816000016000828254019250508190555050565b60008151905060006a636f6e736f6c652e6c6f679050602083016000808483855afa5050505050565b505050565b505050565b60006121bc8473ffffffffffffffffffffffffffffffffffffffff1661238d565b15612325578373ffffffffffffffffffffffffffffffffffffffff1663150b7a026121e561154c565b8786866040518563ffffffff1660e01b81526004016122079493929190612f80565b602060405180830381600087803b15801561222157600080fd5b505af192505050801561225257506040513d601f19601f8201168201806040525081019061224f91906128ce565b60015b6122d5573d8060008114612282576040519150601f19603f3d011682016040523d82523d6000602084013e612287565b606091505b506000815114156122cd576040517f08c379a00000000000000000000000000000000000000000000000000000000081526004016122c4906130a0565b60405180910390fd5b805181602001fd5b63150b7a0260e01b7bffffffffffffffffffffffffffffffffffffffffffffffffffffffff1916817bffffffffffffffffffffffffffffffffffffffffffffffffffffffff19161491505061232a565b600190505b949350505050565b61233c83836123b0565b612349600084848461219b565b612388576040517f08c379a000000000000000000000000000000000000000000000000000000000815260040161237f906130a0565b60405180910390fd5b505050565b6000808273ffffffffffffffffffffffffffffffffffffffff163b119050919050565b600073ffffffffffffffffffffffffffffffffffffffff168273ffffffffffffffffffffffffffffffffffffffff161415612420576040517f08c379a0000000000000000000000000000000000000000000000000000000008152600401612417906131e0565b60405180910390fd5b612429816114e0565b15612469576040517f08c379a0000000000000000000000000000000000000000000000000000000008152600401612460906130e0565b60405180910390fd5b61247560008383612191565b6001600360008473ffffffffffffffffffffffffffffffffffffffff1673ffffffffffffffffffffffffffffffffffffffff16815260200190815260200160002060008282546124c591906133a9565b92505081905550816002600083815260200190815260200160002060006101000a81548173ffffffffffffffffffffffffffffffffffffffff021916908373ffffffffffffffffffffffffffffffffffffffff160217905550808273ffffffffffffffffffffffffffffffffffffffff16600073ffffffffffffffffffffffffffffffffffffffff167fddf252ad1be2c89b69c2b068fc378daa952ba7f163c4a11628f55a4df523b3ef60405160405180910390a461258660008383612196565b5050565b82805461259690613574565b90600052602060002090601f0160209004810192826125b857600085556125ff565b82601f106125d157805160ff19168380011785556125ff565b828001600101855582156125ff579182015b828111156125fe5782518255916020019190600101906125e3565b5b50905061260c9190612610565b5090565b5b80821115612629576000816000905550600101612611565b5090565b600061264061263b84613320565b6132fb565b90508281526020810184848401111561265857600080fd5b612663848285613532565b509392505050565b60008135905061267a81613dce565b92915050565b60008135905061268f81613de5565b92915050565b6000813590506126a481613dfc565b92915050565b6000815190506126b981613dfc565b92915050565b600082601f8301126126d057600080fd5b81356126e084826020860161262d565b91505092915050565b6000813590506126f881613e13565b92915050565b60006020828403121561271057600080fd5b600061271e8482850161266b565b91505092915050565b6000806040838503121561273a57600080fd5b60006127488582860161266b565b92505060206127598582860161266b565b9150509250929050565b60008060006060848603121561277857600080fd5b60006127868682870161266b565b93505060206127978682870161266b565b92505060406127a8868287016126e9565b9150509250925092565b600080600080608085870312156127c857600080fd5b60006127d68782880161266b565b94505060206127e78782880161266b565b93505060406127f8878288016126e9565b925050606085013567ffffffffffffffff81111561281557600080fd5b612821878288016126bf565b91505092959194509250565b6000806040838503121561284057600080fd5b600061284e8582860161266b565b925050602061285f85828601612680565b9150509250929050565b6000806040838503121561287c57600080fd5b600061288a8582860161266b565b925050602061289b858286016126e9565b9150509250929050565b6000602082840312156128b757600080fd5b60006128c584828501612695565b91505092915050565b6000602082840312156128e057600080fd5b60006128ee848285016126aa565b91505092915050565b60006020828403121561290957600080fd5b6000612917848285016126e9565b91505092915050565b612929816134be565b82525050565b612938816134d0565b82525050565b600061294982613366565b612953818561337c565b9350612963818560208601613541565b61296c8161370d565b840191505092915050565b600061298282613371565b61298c818561338d565b935061299c818560208601613541565b6129a58161370d565b840191505092915050565b60006129bb82613371565b6129c5818561339e565b93506129d5818560208601613541565b80840191505092915050565b600081546129ee81613574565b6129f8818661339e565b94506001821660008114612a135760018114612a2457612a57565b60ff19831686528186019350612a57565b612a2d85613351565b60005b83811015612a4f57815481890152600182019150602081019050612a30565b838801955050505b50505092915050565b6000612a6d60328361338d565b9150612a788261371e565b604082019050919050565b6000612a9060258361338d565b9150612a9b8261376d565b604082019050919050565b6000612ab3601c8361338d565b9150612abe826137bc565b602082019050919050565b6000612ad6600a8361339e565b9150612ae1826137e5565b600a82019050919050565b6000612af960248361338d565b9150612b048261380e565b604082019050919050565b6000612b1c60198361338d565b9150612b278261385d565b602082019050919050565b6000612b3f60638361339e565b9150612b4a82613886565b606382019050919050565b6000612b62600b8361339e565b9150612b6d82613921565b600b82019050919050565b6000612b85602c8361338d565b9150612b908261394a565b604082019050919050565b6000612ba8600d8361339e565b9150612bb382613999565b600d82019050919050565b6000612bcb60388361338d565b9150612bd6826139c2565b604082019050919050565b6000612bee602a8361338d565b9150612bf982613a11565b604082019050919050565b6000612c1160298361338d565b9150612c1c82613a60565b604082019050919050565b6000612c34602e8361338d565b9150612c3f82613aaf565b604082019050919050565b6000612c5760028361339e565b9150612c6282613afe565b600282019050919050565b6000612c7a60208361338d565b9150612c8582613b27565b602082019050919050565b6000612c9d60318361338d565b9150612ca882613b50565b604082019050919050565b6000612cc0602c8361338d565b9150612ccb82613b9f565b604082019050919050565b6000612ce3602f8361338d565b9150612cee82613bee565b604082019050919050565b6000612d0660068361338d565b9150612d1182613c3d565b602082019050919050565b6000612d29600a8361339e565b9150612d3482613c66565b600a82019050919050565b6000612d4c60218361338d565b9150612d5782613c8f565b604082019050919050565b6000612d6f600a8361339e565b9150612d7a82613cde565b600a82019050919050565b6000612d92601d8361339e565b9150612d9d82613d07565b601d82019050919050565b6000612db560318361338d565b9150612dc082613d30565b604082019050919050565b6000612dd860218361338d565b9150612de382613d7f565b604082019050919050565b612df781613528565b82525050565b6000612e0982846129b0565b915081905092915050565b6000612e2082856129b0565b9150612e2c82846129b0565b91508190509392505050565b6000612e4482866129b0565b9150612e5082856129b0565b9150612e5c82846129b0565b9150819050949350505050565b6000612e7582856129e1565b9150612e8182846129b0565b9150612e8c82612b9b565b91508190509392505050565b6000612ea382612ac9565b9150612eaf82846129b0565b915081905092915050565b6000612ec582612b55565b9150612ed182846129b0565b915081905092915050565b6000612ee782612d1c565b9150612ef382856129b0565b9150612efe82612b32565b9150612f0a82846129b0565b9150612f1582612c4a565b91508190509392505050565b6000612f2c82612d62565b9150612f3882846129b0565b915081905092915050565b6000612f4e82612d85565b9150612f5a82846129b0565b915081905092915050565b6000602082019050612f7a6000830184612920565b92915050565b6000608082019050612f956000830187612920565b612fa26020830186612920565b612faf6040830185612dee565b8181036060830152612fc1818461293e565b905095945050505050565b6000604082019050612fe16000830185612920565b612fee6020830184612dee565b9392505050565b600060208201905061300a600083018461292f565b92915050565b6000602082019050818103600083015261302a8184612977565b905092915050565b6000604082019050818103600083015261304c8185612977565b905061305b6020830184612dee565b9392505050565b6000606082019050818103600083015261307c8186612977565b905061308b6020830185612dee565b6130986040830184612920565b949350505050565b600060208201905081810360008301526130b981612a60565b9050919050565b600060208201905081810360008301526130d981612a83565b9050919050565b600060208201905081810360008301526130f981612aa6565b9050919050565b6000602082019050818103600083015261311981612aec565b9050919050565b6000602082019050818103600083015261313981612b0f565b9050919050565b6000602082019050818103600083015261315981612b78565b9050919050565b6000602082019050818103600083015261317981612bbe565b9050919050565b6000602082019050818103600083015261319981612be1565b9050919050565b600060208201905081810360008301526131b981612c04565b9050919050565b600060208201905081810360008301526131d981612c27565b9050919050565b600060208201905081810360008301526131f981612c6d565b9050919050565b6000602082019050818103600083015261321981612c90565b9050919050565b6000602082019050818103600083015261323981612cb3565b9050919050565b6000602082019050818103600083015261325981612cd6565b9050919050565b6000602082019050818103600083015261327981612cf9565b9050919050565b6000602082019050818103600083015261329981612d3f565b9050919050565b600060208201905081810360008301526132b981612da8565b9050919050565b600060208201905081810360008301526132d981612dcb565b9050919050565b60006020820190506132f56000830184612dee565b92915050565b6000613305613316565b905061331182826135a6565b919050565b6000604051905090565b600067ffffffffffffffff82111561333b5761333a6136de565b5b6133448261370d565b9050602081019050919050565b60008190508160005260206000209050919050565b600081519050919050565b600081519050919050565b600082825260208201905092915050565b600082825260208201905092915050565b600081905092915050565b60006133b482613528565b91506133bf83613528565b9250827fffffffffffffffffffffffffffffffffffffffffffffffffffffffffffffffff038211156133f4576133f3613651565b5b828201905092915050565b600061340a82613528565b915061341583613528565b92508261342557613424613680565b5b828204905092915050565b600061343b82613528565b915061344683613528565b9250817fffffffffffffffffffffffffffffffffffffffffffffffffffffffffffffffff048311821515161561347f5761347e613651565b5b828202905092915050565b600061349582613528565b91506134a083613528565b9250828210156134b3576134b2613651565b5b828203905092915050565b60006134c982613508565b9050919050565b60008115159050919050565b60007fffffffff0000000000000000000000000000000000000000000000000000000082169050919050565b600073ffffffffffffffffffffffffffffffffffffffff82169050919050565b6000819050919050565b82818337600083830152505050565b60005b8381101561355f578082015181840152602081019050613544565b8381111561356e576000848401525b50505050565b6000600282049050600182168061358c57607f821691505b602082108114156135a05761359f6136af565b5b50919050565b6135af8261370d565b810181811067ffffffffffffffff821117156135ce576135cd6136de565b5b80604052505050565b60006135e282613528565b91507fffffffffffffffffffffffffffffffffffffffffffffffffffffffffffffffff82141561361557613614613651565b5b600182019050919050565b600061362b82613528565b915061363683613528565b92508261364657613645613680565b5b828206905092915050565b7f4e487b7100000000000000000000000000000000000000000000000000000000600052601160045260246000fd5b7f4e487b7100000000000000000000000000000000000000000000000000000000600052601260045260246000fd5b7f4e487b7100000000000000000000000000000000000000000000000000000000600052602260045260246000fd5b7f4e487b7100000000000000000000000000000000000000000000000000000000600052604160045260246000fd5b6000601f19601f8301169050919050565b7f4552433732313a207472616e7366657220746f206e6f6e20455243373231526560008201527f63656976657220696d706c656d656e7465720000000000000000000000000000602082015250565b7f4552433732313a207472616e736665722066726f6d20696e636f72726563742060008201527f6f776e6572000000000000000000000000000000000000000000000000000000602082015250565b7f4552433732313a20746f6b656e20616c7265616479206d696e74656400000000600082015250565b7f54484952445f574f524400000000000000000000000000000000000000000000600082015250565b7f4552433732313a207472616e7366657220746f20746865207a65726f2061646460008201527f7265737300000000000000000000000000000000000000000000000000000000602082015250565b7f4552433732313a20617070726f766520746f2063616c6c657200000000000000600082015250565b7f222c20226465736372697074696f6e223a20224120686967686c79206163636c60008201527f61696d656420636f6c6c656374696f6e206f6620737175617265732e222c202260208201527f696d616765223a2022646174613a696d6167652f7376672b786d6c3b6261736560408201527f36342c0000000000000000000000000000000000000000000000000000000000606082015250565b7f5345434f4e445f574f5244000000000000000000000000000000000000000000600082015250565b7f4552433732313a206f70657261746f7220717565727920666f72206e6f6e657860008201527f697374656e7420746f6b656e0000000000000000000000000000000000000000602082015250565b7f3c2f746578743e3c2f7376673e00000000000000000000000000000000000000600082015250565b7f4552433732313a20617070726f76652063616c6c6572206973206e6f74206f7760008201527f6e6572206e6f7220617070726f76656420666f7220616c6c0000000000000000602082015250565b7f4552433732313a2062616c616e636520717565727920666f7220746865207a6560008201527f726f206164647265737300000000000000000000000000000000000000000000602082015250565b7f4552433732313a206f776e657220717565727920666f72206e6f6e657869737460008201527f656e7420746f6b656e0000000000000000000000000000000000000000000000602082015250565b7f45524337323155524953746f726167653a2055524920736574206f66206e6f6e60008201527f6578697374656e7420746f6b656e000000000000000000000000000000000000602082015250565b7f227d000000000000000000000000000000000000000000000000000000000000600082015250565b7f4552433732313a206d696e7420746f20746865207a65726f2061646472657373600082015250565b7f45524337323155524953746f726167653a2055524920717565727920666f722060008201527f6e6f6e6578697374656e7420746f6b656e000000000000000000000000000000602082015250565b7f4552433732313a20617070726f76656420717565727920666f72206e6f6e657860008201527f697374656e7420746f6b656e0000000000000000000000000000000000000000602082015250565b7f4552433732314d657461646174613a2055524920717565727920666f72206e6f60008201527f6e6578697374656e7420746f6b656e0000000000000000000000000000000000602082015250565b7f7265766572740000000000000000000000000000000000000000000000000000600082015250565b7f7b226e616d65223a202200000000000000000000000000000000000000000000600082015250565b7f4552433732313a20617070726f76616c20746f2063757272656e74206f776e6560008201527f7200000000000000000000000000000000000000000000000000000000000000602082015250565b7f46495253545f574f524400000000000000000000000000000000000000000000600082015250565b7f646174613a6170706c69636174696f6e2f6a736f6e3b6261736536342c000000600082015250565b7f4552433732313a207472616e736665722063616c6c6572206973206e6f74206f60008201527f776e6572206e6f7220617070726f766564000000000000000000000000000000602082015250565b7f4e6f7420656e6f756768204554482073656e743b20636865636b20707269636560008201527f2100000000000000000000000000000000000000000000000000000000000000602082015250565b613dd7816134be565b8114613de257600080fd5b50565b613dee816134d0565b8114613df957600080fd5b50565b613e05816134dc565b8114613e1057600080fd5b50565b613e1c81613528565b8114613e2757600080fd5b5056fe416e204e465420772f20494420257320686173206265656e206d696e74656420746f2025734142434445464748494a4b4c4d4e4f505152535455565758595a6162636465666768696a6b6c6d6e6f707172737475767778797a303132333435363738392b2fa2646970667358221220e62bc5a43823fe90125f598fc26adaa944898a79ce0ba8cdd93c8cf4d89acec264736f6c634300080400333c73766720786d6c6e733d27687474703a2f2f7777772e77332e6f72672f323030302f73766727207072657365727665417370656374526174696f3d27784d696e594d696e206d656574272076696577426f783d273020302033353020333530273e3c7374796c653e2e62617365207b2066696c6c3a2077686974653b20666f6e742d66616d696c793a2073657269663b20666f6e742d73697a653a20323470783b207d3c2f7374796c653e3c726563742077696474683d273130302527206865696768743d2731303025272066696c6c3d27626c61636b27202f3e3c7465787420783d273530252720793d273530252720636c6173733d27626173652720646f6d696e616e742d626173656c696e653d276d6964646c652720746578742d616e63686f723d276d6964646c65273e",
  "linkReferences": {},
  "deployedLinkReferences": {}
}